{
  "contractName": "Assessment",
  "abi": [
    {
      "inputs": [],
      "name": "sampleBalance",
      "outputs": [
        {
          "internalType": "uint256",
          "name": "",
          "type": "uint256"
        }
      ],
      "stateMutability": "view",
      "type": "function",
      "constant": true
    },
    {
      "inputs": [
        {
          "internalType": "uint256",
          "name": "x",
          "type": "uint256"
        }
      ],
      "name": "aRequire",
      "outputs": [],
      "stateMutability": "pure",
      "type": "function",
      "constant": true
    },
    {
      "inputs": [
        {
          "internalType": "uint256",
          "name": "x",
          "type": "uint256"
        }
      ],
      "name": "aRevert",
      "outputs": [],
      "stateMutability": "pure",
      "type": "function",
      "constant": true
    },
    {
      "inputs": [],
      "name": "aAssert",
      "outputs": [
        {
          "internalType": "string",
          "name": "",
          "type": "string"
        }
      ],
      "stateMutability": "view",
      "type": "function",
      "constant": true
    }
  ],
  "bytecode": "0x6080604052600560005534801561001557600080fd5b506104f2806100256000396000f3fe608060405234801561001057600080fd5b506004361061004c5760003560e01c806345e254bd1461005157806387374f2d1461006d578063d064491d14610089578063fa6644e4146100a7575b600080fd5b61006b6004803603810190610066919061021a565b6100c5565b005b6100876004803603810190610082919061021a565b61010c565b005b61009161018a565b60405161009e91906102d7565b60405180910390f35b6100af6101d9565b6040516100bc9190610308565b60405180910390f35b6005811015610109576040517f08c379a00000000000000000000000000000000000000000000000000000000081526004016101009061036f565b60405180910390fd5b50565b600a811061014f576040517f08c379a000000000000000000000000000000000000000000000000000000000815260040161014690610401565b60405180910390fd5b6040517f08c379a00000000000000000000000000000000000000000000000000000000081526004016101819061046d565b60405180910390fd5b6060600080541161019e5761019d61048d565b5b6040518060400160405280600f81526020017f54657374205375636365737366756c0000000000000000000000000000000000815250905090565b60005481565b600080fd5b6000819050919050565b6101f7816101e4565b811461020257600080fd5b50565b600081359050610214816101ee565b92915050565b6000602082840312156102305761022f6101df565b5b600061023e84828501610205565b91505092915050565b600081519050919050565b600082825260208201905092915050565b60005b83811015610281578082015181840152602081019050610266565b60008484015250505050565b6000601f19601f8301169050919050565b60006102a982610247565b6102b38185610252565b93506102c3818560208601610263565b6102cc8161028d565b840191505092915050565b600060208201905081810360008301526102f1818461029e565b905092915050565b610302816101e4565b82525050565b600060208201905061031d60008301846102f9565b92915050565b7f4d7573742062652067726561746572207468616e203500000000000000000000600082015250565b6000610359601683610252565b915061036482610323565b602082019050919050565b600060208201905081810360008301526103888161034c565b9050919050565b7f496e7075742069732067726561746572207468616e206f7220657175616c207460008201527f6f20313000000000000000000000000000000000000000000000000000000000602082015250565b60006103eb602483610252565b91506103f68261038f565b604082019050919050565b6000602082019050818103600083015261041a816103de565b9050919050565b7f496e707574206973206c657373207468616e2031300000000000000000000000600082015250565b6000610457601583610252565b915061046282610421565b602082019050919050565b600060208201905081810360008301526104868161044a565b9050919050565b7f4e487b7100000000000000000000000000000000000000000000000000000000600052600160045260246000fdfea2646970667358221220ecf884a19e278467c3e1b149f1e4a82fcf60cbe7b4e5df1e55f5006580fdb5cf64736f6c63430008110033",
  "immutableReferences": {},
  "source": "//SPDX-License-Identifier: MIT\r\n\r\npragma solidity ^0.8.13;\r\n\r\ncontract Assessment {\r\n\r\n    uint public sampleBalance = 5;\r\n\r\n    function aRequire(uint x) public pure{\r\n        require(x >= 5, \"Must be greater than 5\");\r\n    }\r\n\r\n    function aRevert(uint x) public pure{\r\n        if(x >= 10){\r\n            revert(\"Input is greater than or equal to 10\");\r\n        }else{\r\n            revert(\"Input is less than 10\");\r\n        }\r\n    }\r\n\r\n    function aAssert() public view returns (string memory){\r\n        assert(sampleBalance > 0);\r\n        return \"Test Successful\";\r\n    }\r\n\r\n}",
  "sourcePath": "C:\\Metacrafters\\functions_and_errors_eth_avax\\contracts\\Assessment.sol",
  "compiler": {
    "name": "solc",
    "version": "0.8.17+commit.8df45f5f.Emscripten.clang"
  },
  "schemaVersion": "3.4.16",
  "updatedAt": "2023-10-10T23:47:36.843Z",
  "networkType": "ethereum",
  "devdoc": {
    "kind": "dev",
    "methods": {},
    "version": 1
  },
  "userdoc": {
    "kind": "user",
    "methods": {},
    "version": 1
  }
}