{
  "contractName": "Assessment",
  "abi": [
    {
      "inputs": [],
      "name": "sampleBalance",
      "outputs": [
        {
          "internalType": "uint256",
          "name": "",
          "type": "uint256"
        }
      ],
      "stateMutability": "view",
      "type": "function",
      "constant": true
    },
    {
      "inputs": [
        {
          "internalType": "uint256",
          "name": "x",
          "type": "uint256"
        }
      ],
      "name": "aRequire",
      "outputs": [
        {
          "internalType": "string",
          "name": "",
          "type": "string"
        }
      ],
      "stateMutability": "pure",
      "type": "function",
      "constant": true
    },
    {
      "inputs": [
        {
          "internalType": "uint256",
          "name": "x",
          "type": "uint256"
        }
      ],
      "name": "aRevert",
      "outputs": [],
      "stateMutability": "pure",
      "type": "function",
      "constant": true
    },
    {
      "inputs": [],
      "name": "aAssert",
      "outputs": [
        {
          "internalType": "string",
          "name": "",
          "type": "string"
        }
      ],
      "stateMutability": "view",
      "type": "function",
      "constant": true
    }
  ],
  "bytecode": "0x6080604052600560005534801561001557600080fd5b50610542806100256000396000f3fe608060405234801561001057600080fd5b506004361061004c5760003560e01c806345e254bd1461005157806387374f2d14610081578063d064491d1461009d578063fa6644e4146100bb575b600080fd5b61006b6004803603810190610066919061026a565b6100d9565b6040516100789190610327565b60405180910390f35b61009b6004803603810190610096919061026a565b61015c565b005b6100a56101da565b6040516100b29190610327565b60405180910390f35b6100c3610229565b6040516100d09190610358565b60405180910390f35b6060600582101561011f576040517f08c379a0000000000000000000000000000000000000000000000000000000008152600401610116906103bf565b60405180910390fd5b6040518060400160405280600f81526020017f54657374205375636365737366756c00000000000000000000000000000000008152509050919050565b600a811061019f576040517f08c379a000000000000000000000000000000000000000000000000000000000815260040161019690610451565b60405180910390fd5b6040517f08c379a00000000000000000000000000000000000000000000000000000000081526004016101d1906104bd565b60405180910390fd5b606060008054116101ee576101ed6104dd565b5b6040518060400160405280600f81526020017f54657374205375636365737366756c0000000000000000000000000000000000815250905090565b60005481565b600080fd5b6000819050919050565b61024781610234565b811461025257600080fd5b50565b6000813590506102648161023e565b92915050565b6000602082840312156102805761027f61022f565b5b600061028e84828501610255565b91505092915050565b600081519050919050565b600082825260208201905092915050565b60005b838110156102d15780820151818401526020810190506102b6565b60008484015250505050565b6000601f19601f8301169050919050565b60006102f982610297565b61030381856102a2565b93506103138185602086016102b3565b61031c816102dd565b840191505092915050565b6000602082019050818103600083015261034181846102ee565b905092915050565b61035281610234565b82525050565b600060208201905061036d6000830184610349565b92915050565b7f4d7573742062652067726561746572207468616e203500000000000000000000600082015250565b60006103a96016836102a2565b91506103b482610373565b602082019050919050565b600060208201905081810360008301526103d88161039c565b9050919050565b7f496e7075742069732067726561746572207468616e206f7220657175616c207460008201527f6f20313000000000000000000000000000000000000000000000000000000000602082015250565b600061043b6024836102a2565b9150610446826103df565b604082019050919050565b6000602082019050818103600083015261046a8161042e565b9050919050565b7f496e707574206973206c657373207468616e2031300000000000000000000000600082015250565b60006104a76015836102a2565b91506104b282610471565b602082019050919050565b600060208201905081810360008301526104d68161049a565b9050919050565b7f4e487b7100000000000000000000000000000000000000000000000000000000600052600160045260246000fdfea2646970667358221220f99da6e51f398ce39bd135a03e93cc0a9bccafc7681bb19d9f9d646567f511c664736f6c63430008110033",
  "immutableReferences": {},
  "source": "//SPDX-License-Identifier: MIT\n\npragma solidity ^0.8.13;\n\ncontract Assessment {\n\n    uint public sampleBalance = 5;\n\n    function aRequire(uint x) public pure returns (string memory){\n        require(x >= 5, \"Must be greater than 5\");\n        return \"Test Successful\";\n    }\n\n    function aRevert(uint x) public pure{\n        if(x >= 10){\n            revert(\"Input is greater than or equal to 10\");\n        }else{\n            revert(\"Input is less than 10\");\n        }\n    }\n\n    function aAssert() public view returns (string memory){\n        assert(sampleBalance > 0);\n        return \"Test Successful\";\n    }\n\n}",
  "sourcePath": "/workspace/functions_and_errors_eth_avax/contracts/Assessment.sol",
  "compiler": {
    "name": "solc",
    "version": "0.8.17+commit.8df45f5f.Emscripten.clang"
  },
  "schemaVersion": "3.4.16",
  "updatedAt": "2023-10-11T00:05:58.795Z",
  "networkType": "ethereum",
  "devdoc": {
    "kind": "dev",
    "methods": {},
    "version": 1
  },
  "userdoc": {
    "kind": "user",
    "methods": {},
    "version": 1
  }
}